:1000000045C0000060C000005EC000005CC0000091
:100010005AC0000058C0000056C0000054C0000084
:1000200052C0000050C000004EC000004CC0000094
:100030004AC0000048C0000046C0000044C00000A4
:1000400052C1000040C0000094C100003CC000004C
:100050003AC0000038C0000036C0000034C00000C4
:1000600032C0000030C000002EC000002CC00000D4
:100070002AC0000028C000006AC2000024C000009E
:1000800022C0000020C000001EC0000011241FBEBE
:10009000CFEFD0E1DEBFCDBF11E0A0E0B1E0E0E8FE
:1000A000FDE000E00BBF02C007900D92AE3CB1072F
:1000B000D9F725E0AEECB1E001C01D92A031B20746
:1000C000E1F733D15BC69CCF8091DA019091DB01DF
:1000D0008436910564F11092DB011092DA014091AF
:1000E000D8015091D9014430510534F01BBA109217
:1000F000D9011092D8010895CA0101969093D901AF
:100100008093D8015BB360E170E0042E02C0660FFB
:10011000771F0A94E2F728E030E002C03595279572
:100120004A95E2F7CB01822B932B852B8BBB08954D
:100130008091DA019091DB014E9774F11092DB010E
:100140001092DA014091D6015091D7014430510507
:1001500034F01BBA1092D7011092D601089580EFA7
:1001600090E0042E02C0959587950A94E2F7282F17
:10017000207F8FE090E002C0880F991F4A95E2F738
:100180008F70822B8BBB8091D6019091D701019605
:100190009093D7018093D60108958091DA019091D0
:1001A000DB014E9714F11092DB011092DA012091DD
:1001B000D4013091D5012830310534F01BBA1092AA
:1001C000D5011092D4010895C90101969093D501EB
:1001D0008093D4013BB381E090E002C0880F991F67
:1001E0002A95E2F7832B8BBB8BBB08958091DA01B4
:1001F0009091DB014E970CF11092DB011092DA0125
:100200002091D2013091D3012830310534F01BBA4E
:100210001092D3011092D2010895C90101969093D2
:10022000D3018093D2013BB380E890E002C0959562
:1002300087952A95E2F7832B8BBB08958091DA018D
:100240009091DB014E970CF11092DB011092DA01D4
:100250008091D0019091D1018830910534F01BBA82
:100260001092D1011092D00108959C012F5F3F4F51
:100270003093D1012093D00121E030E0A90102C0E8
:10028000440F551F8A95E2F74BBB08958091DA0120
:100290009091DB014E970CF11092DB011092DA0184
:1002A0008091CE019091CF018830910534F01BBA36
:1002B0001092CF011092CE0108959C012F5F3F4F05
:1002C0003093CF012093CE0120E830E0A90102C095
:1002D000559547958A95E2F74BBB08958FEF8BBBF9
:1002E00008951BBA08951F920F920FB60F92112412
:1002F0008F939F9386E082BF8091DA019091DB011A
:1003000001969093DB018093DA019F918F910F907A
:100310000FBE0F901F90189586E082BF83B7846050
:1003200083BF87B7816087BF0895F6DF8FD07DD107
:100330008FEF8ABB1BBA82E191E090930D05809309
:100340000C05789480E491E03CD2C7E0D0E082D103
:100350008FD08091DE019091DF01BE01EAD1FC01D6
:10036000EE0FFF1FE050FF4F0190F081E02D099547
:10037000EECF1F920F920FB60F9211240BB60F9271
:100380002F933F934F935F936F937F938F939F939D
:10039000EF93FF93CF93DF931F92CDB7DEB78CB16E
:1003A000898389818A3011F52091E2013091E3013E
:1003B000C90101969093E3018093E2018091DC01F1
:1003C0009091DD0148E2429FF001439FF00D11241E
:1003D000E651FE4FE80FF91F10828091E2019091E3
:1003E000E3011092DD011092DC011CC06091E2017A
:1003F0007091E3018091DC019091DD019C012F5F00
:100400003F4F3093DD012093DC01498158E2569F34
:100410009001579F300D112426513E4FF901E80FEE
:10042000F91F40830F90DF91CF91FF91EF919F9142
:100430008F917F916F915F914F913F912F910F908D
:100440000BBE0F900FBE0F901F901895109290004A
:100450008FEC89B9599AE5E9F0E080818660808364
:100460008AB188698AB908955D9BFECF8CB90895D9
:10047000DF92EF92FF920F931F93CF93DF93209120
:10048000E0013091E1018091E2019091E3012817B0
:10049000390709F454C02091E0013091E10148E2AC
:1004A000429FC001439F900D112486519E4F89D1D8
:1004B000C0E2D1E000E010E00F2EF8E2DF2EF02DD8
:1004C000F880E9802296AF2DBE2DFD01019000201D
:1004D000E9F73197AF014A1B5B0B2091E0013091A6
:1004E000E101D29EC001D39E900D11246F2D7E2D6F
:1004F00086519E4F45D1892B49F4EF92FF924ED100
:100500001093DF010093DE010F900F900F5F1F4FDC
:1005100008301105A9F68091E0019091E101019662
:100520009093E1018093E0018091E0019091E101DD
:100530006AE070E0FED09093E1018093E001DF91EA
:10054000CF911F910F91FF90EF90DF9008951F9230
:100550000F920FB60F9211240BB60F922F933F9369
:100560004F935F936F937F938F939F93EF93FF933B
:10057000CF93DF931F92CDB7DEB780919C00898324
:1005800089818A3011F52091E8013091E901C90192
:1005900001969093E9018093E8018091E4019091A4
:1005A000E50148E2429FF001439FF00D1124E65817
:1005B000FC4FE80FF91F10828091E8019091E9014A
:1005C0001092E5011092E4011CC06091E801709165
:1005D000E9018091E4019091E5019C012F5F3F4F7B
:1005E0003093E5012093E401498158E2569F900140
:1005F000579F300D112426583C4FF901E80FF91F81
:1006000040830F90DF91CF91FF91EF919F918F9158
:100610007F916F915F914F913F912F910F900BBE02
:100620000F900FBE0F901F901895109298008FECAE
:1006300080939900EBE9F0E0808182608083EDE9AE
:10064000F0E0808186608083EAE9F0E0808188695B
:1006500080830895DF92EF92FF920F931F93CF93C1
:10066000DF932091E6013091E7018091E8019091BC
:10067000E9012817390709F454C02091E6013091A7
:10068000E70148E2429FC001439F900D1124865824
:100690009C4F97D0C0E3D1E000E010E00F2EF8E2CD
:1006A000DF2EF02DF880E9802296AF2DBE2DFD01C2
:1006B00001900020E9F73197AF014A1B5B0B2091B5
:1006C000E6013091E701D29EC001D39E900D112426
:1006D0006F2D7E2D86589C4F53D0892B49F4EF9275
:1006E000FF925CD01093DF010093DE010F900F901A
:1006F0000F5F1F4F08301105A9F68091E601909118
:10070000E70101969093E7018093E6018091E6016D
:100710009091E7016AE070E00CD09093E70180933C
:10072000E601DF91CF911F910F91FF90EF90DF9045
:10073000089597FB072E16F4009406D077FD08D095
:100740000BD007FC05D03EF4909581959F4F0895FE
:10075000709561957F4F0895AA1BBB1B51E107C09F
:10076000AA1FBB1FA617B70710F0A61BB70B881F41
:10077000991F5A95A9F780959095BC01CD010895D0
:10078000FB01DC014150504030F08D910190801907
:1007900019F40020B9F7881B990B0895CF93DF93C4
:1007A000CDB7DEB7AE014B5F5F4FFA01619171913A
:1007B000AF0180910C0590910D0533D0DF91CF9161
:1007C00008950F931F93CF93DF93E0910C05F09161
:1007D0000D05238121FF1BC08C01D0E0C0E0F80192
:1007E00081918F0160910C0570910D05DB011896C8
:1007F000ED91FC911997882331F00995892B79F3B4
:10080000DFEFCFEFECCF8AE00995892B19F08FEF5E
:100810009FEF02C08D2F9C2FDF91CF911F910F91E1
:1008200008952F923F924F925F926F927F928F9294
:100830009F92AF92BF92CF92DF92EF92FF920F936F
:100840001F93CF93DF93CDB7DEB72B970FB6F894F6
:10085000DEBF0FBECDBF6C017B018A01FC01178298
:100860001682838181FFBFC1CE0101963C01F60152
:100870009381F70193FD859193FF81917F018823F7
:1008800009F4ADC1853239F493FD859193FF8191CF
:100890007F01853221F4B60190E0D6D1E8CF912CCA
:1008A000212C312CFFE1F315D8F08B3279F038F49C
:1008B000803279F08332A1F4232D20611DC08D3266
:1008C00061F0803369F4232D216016C0832D82608E
:1008D000382EE32DE4603E2E2AC0F32DF8601DC0B3
:1008E00037FC2DC020ED280F2A3040F08E32B9F4AD
:1008F00036FC75C1232D2064322E19C036FE06C089
:100900008AE0989E200D1124922E11C0EAE02E9EBE
:10091000200D1124222EF32DF0623F2E08C08C36BC
:1009200021F4832D8068382E02C0883641F4F70107
:1009300093FD859193FF81917F018111B3CF982F12
:100940009F7D9554933028F40C5F1F4F9FE399834C
:100950000DC0833631F0833771F0833509F055C00F
:1009600020C0F801808189830E5F1F4F8824839403
:10097000912C530112C02801F2E04F0E511CF801D6
:10098000A080B18036FE03C0692D70E002C06FEF19
:100990007FEFC5014ED14C018201F32DFF773F2E31
:1009A00015C0280122E0420E511CF801A080B18040
:1009B00036FE03C0692D70E002C06FEF7FEFC50106
:1009C0002DD14C01F32DF0683F2E820133FC19C06C
:1009D000822D90E088169906A0F4B60180E290E09E
:1009E00033D12A94F5CFF50137FC859137FE8191FB
:1009F0005F01B60190E028D121102A9421E0821AEB
:100A000091088114910479F7E1C0843611F0893698
:100A100039F5F80137FE07C06081718182819381C9
:100A20000C5F1F4F08C060817181072E000C880B7E
:100A3000990B0E5F1F4FF32DFF763F2E97FF09C0D6
:100A400090958095709561957F4F8F4F9F4FF0687F
:100A50003F2E2AE030E0A30133D1882E861844C00F
:100A6000853731F4232D2F7EB22E2AE030E025C0C9
:100A7000932D997FB92E8F36C1F018F4883579F00F
:100A8000AEC0803719F0883721F0A9C0E92FE061A6
:100A9000BE2EB4FE0DC0FB2DF460BF2E09C034FE87
:100AA0000AC0292F2660B22E06C028E030E005C01B
:100AB00020E130E002C020E132E0F801B7FE07C0DB
:100AC00060817181828193810C5F1F4F06C06081BC
:100AD000718180E090E00E5F1F4FA301F1D0882E5E
:100AE0008618FB2DFF773F2E36FE0DC0232D2E7F5F
:100AF000A22E891458F434FE0BC032FC09C0832D99
:100B00008E7EA82E05C0B82CA32C03C0B82C01C023
:100B1000B92CA4FE0FC0FE01E80DF11D80818033C9
:100B200021F49A2D997EA92E09C0A2FE06C0B39485
:100B3000B39404C08A2D867809F0B394A3FC10C046
:100B4000A0FE06C0B21480F4280C922C9B180DC095
:100B5000B21458F4B60180E290E076D0B394F8CFA6
:100B6000B21418F42B1802C0982C212CA4FE0FC02C
:100B7000B60180E390E068D0A2FE16C0A1FC03C0DD
:100B800088E790E002C088E590E0B6010CC08A2DAD
:100B9000867851F0A1FE02C08BE201C080E2A7FC82
:100BA0008DE2B60190E050D0891430F4B60180E3B4
:100BB00090E04AD09A94F8CF8A94F301E80DF11DA1
:100BC0008081B60190E040D08110F6CF222009F458
:100BD0004ECEB60180E290E037D02A94F7CFF601EE
:100BE0008681978102C08FEF9FEF2B960FB6F89406
:100BF000DEBF0FBECDBFDF91CF911F910F91FF9050
:100C0000EF90DF90CF90BF90AF909F908F907F90AC
:100C10006F905F904F903F902F900895FC0105904A
:100C2000615070400110D8F7809590958E0F9F1FEE
:100C30000895FC016150704001900110D8F7809533
:100C400090958E0F9F1F08950F931F93CF93DF935F
:100C5000FB01238121FD03C08FEF9FEF2CC022FFFA
:100C600016C046815781248135814217530744F4C9
:100C7000A081B1819D012F5F3F4F318320838C93F1
:100C8000268137812F5F3F4F3783268314C08B0126
:100C9000EC01FB010084F185E02D0995892BE1F63B
:100CA000D80116968D919C911797019617969C9353
:100CB0008E931697CE01DF91CF911F910F910895DA
:100CC000FA01AA27283051F1203181F1E8946F937D
:100CD0006E7F6E5F7F4F8F4F9F4FAF4FB1E03ED023
:100CE000B4E03CD0670F781F891F9A1FA11D680FC1
:100CF000791F8A1F911DA11D6A0F711D811D911DF4
:100D0000A11D20D009F468943F912AE0269F112468
:100D10003019305D3193DEF6CF010895462F4770CC
:100D2000405D4193B3E00FD0C9F7F6CF462F4F7027
:100D3000405D4A3318F0495D31FD4052419302D085
:100D4000A9F7EACFB4E0A69597958795779567952B
:100D5000BA95C9F700976105710508959B01AC012B
:100D60000A2E06945795479537952795BA95C9F752
:100D7000620F731F841F951FA01D0895F894FFCF65
:100D800071016E0171011E014601CD00F600640083
:100D90009800000000020000000034020000000083
:100DA00051015C01680179018B01A101B801C20107
:100DB00051015C01680179018B01A101B801C201F7
:100DC0005541525420696E697469616C697A656431
:100DD000006C65645F616C6C5F6F6E006C65645F76
:100DE000616C6C5F6F66660073686966745F6C65E2
:100DF00066745F6C65646F6E0073686966745F72B9
:100E0000696768745F6C65646F6E007368696674A7
:100E10005F6C6566745F6B6565705F6C65646F6E53
:100E20000073686966745F72696768745F6B656593
:100E3000705F6C65646F6E00666C6F7765725F6F74
:0E0E40006E00666C6F7765725F6F666600000D
:00000001FF
