S016000030382E4F55525F50524F4A4543542E737265630C
S11300004DC0000069C0000067C0000065C000006A
S113001063C000009BC700005FC000005DC000001B
S11300205BC0000059C0000057C0000055C000006C
S11300303FC2000051C000004FC000004DC000008E
S1130040BEC1000049C00000FDC5000045C000005D
S113005043C0000041C000003FC000003DC000009C
S11300603BC0000039C0000037C0000035C00000AC
S113007033C0000031C000002FC000002DC00000BC
S11300802BC0000029C0000027C00000FA000E01A8
S11300902A01460162017B019401AD0111241FBEB6
S11300A0CFEFD0E1DEBFCDBF12E0A0E0B1E0E0E3EE
S11300B0FAE100E00BBF02C007900D92AE38B10721
S11300C0D9F725E0AEE8B2E001C01D92A030B20736
S11300D0E1F7DAD20C94160D93CF81B38F7081BB04
S11300E0089520B3422F50E021E030E002C0220FF7
S11300F0331F6A95E2F72423352321153105B9F01E
S1130100FC01E257FD4F4081411111C02FEF3DEE3C
S113011042E0215030404040E1F700C00000FC01C3
S1130120E257FD4F21E0208380E090E00895232BE7
S1130130B1F4FC01E257FD4F2081213099F42FEFF7
S11301403DEE42E0215030404040E1F700C0000065
S1130150FC01E257FD4F108281E090E0089580E0B9
S113016090E0089580E090E008959FEF94BBE1E66D
S1130170F0E08081806F808380818F60808395BB75
S113018008950F931F93CF93DF9300D000D0CDB782
S1130190DEB78C01FB0180819181A281B3818983C7
S11301A09A83AB83BC838091AE02811109C08CE039
S11301B090E0A0E0B0E089839A83AB83BC830EC057
S11301C069817A818B819C812CE030E040E050E0B1
S11301D00E949F0969837A838B839C83E0919202B6
S11301E0F0919302E830F10508F0CFC0EA5BFF4FCD
S11301F00C94C1098FE780936200F80160817181DA
S1130200828193812AE030E040E050E00E949F091F
S1130210FB01E458FE4F808185BBB7C08FEB809310
S11302206200F80160817181828193812AE030E06B
S113023040E050E00E949F09CA01B90126E030E085
S113024040E050E00E949F09FB01E458FE4F80818A
S113025085BB9BC08FED80936200F8016081718142
S1130260828193812CE330E040E050E00E949F09BA
S1130270CA01B9012AE030E040E050E00E949F0941
S1130280FB01E458FE4F808185BB7FC08FEE8093D5
S11302906200F801608171818281938128E532E0F6
S11302A040E050E00E949F09CA01B90126E030E015
S11302B040E050E00E949F09FB01E458FE4F80811A
S11302C085BB63C087EF80936200E091A901F0E0F1
S11302D0EE0FFF1FE050FF4F0190F081E02D2081D1
S11302E0318189819A81AB81BC81F901E80FF91FC1
S11302F0808185BB4AC08BEF80936200E091A901A5
S1130300F0E0EE0FFF1FE050FF4F0190F081E02D71
S11303102281338189819A81AB81BC81F901E80F03
S1130320F91F808185BB31C08DEF80936200E0911D
S1130330A901F0E0EE0FFF1FE050FF4F0190F081A4
S1130340E02D2481358189819A81AB81BC81F901B9
S1130350E80FF91F808185BB18C08EEF809362007F
S1130360E091A901F0E0EE0FFF1FE050FF4F019074
S1130370F081E02D2681378189819A81AB81BC810E
S1130380F901E80FF91F808185BB80919202909159
S11303909302019687709078992324F40197886FCB
S11303A09F6F019690939302809392020F900F9007
S11303B00F900F90DF91CF911F910F9108951F928D
S11303C00F920FB60F9211240BB60F920F931F9337
S11303D02F933F934F935F936F937F938F939F9349
S11303E0AF93BF93EF93FF9386E082BF8091AE02F9
S11303F08130B1F58091A9029091AA02A091AB023B
S1130400B091AC020196A11DB11D8093A9029093F5
S1130410AA02A093AB02B093AC026091A5017091C3
S1130420A6018091A7019091A80126E030E040E068
S113043050E085D70091A5021091A6022091A70251
S11304403091A802DC01CB01800F911FA21FB31FC2
S11304508093A5029093A602A093A702B093A8024A
S11304608091A1029091A202A091A302B091A40252
S11304700196A11DB11D8093A1029093A202A093A5
S1130480A302B093A402FF91EF91BF91AF919F910A
S11304908F917F916F915F914F913F912F911F9118
S11304A00F910F900BBE0F900FBE0F901F901895D9
S11304B01F920F920FB60F9211240BB60F922F9327
S11304C03F934F935F936F937F938F939F93AF93D8
S11304D0BF93EF93FF938091AE02882309F472C017
S11304E080919702882309F46DC080919D029091B8
S11304F09E02A0919F02B091A002892B8A2B8B2B84
S113050009F460C080919D0290919E02A0919F0287
S1130510B091A0020197A109B10980939D02909323
S11305209E02A0939F02B093A00280919D0290919D
S11305309E02A0919F02B091A002BF93AF939F939C
S11305408F938AEA91E09F938F931F9280E88F9311
S113055088E494E09F938F9352D781E08093B10213
S11305606091A1017091A2018DE992E00ADE80916F
S11305709D0290919E02A0919F02B091A0022DB77E
S11305803EB7265F3F4F0FB6F8943EBF0FBE2DBF58
S1130590892B8A2B8B2BB1F41092AE021092970206
S11305A01092AD02109283001092820084E1E3EC79
S11305B0F1E0A8E4B4E001900D928A95E1F781E0BE
S11305C08093B102FF91EF91BF91AF919F918F9171
S11305D07F916F915F914F913F912F910F900BBE3F
S11305E00F900FBE0F901F90189586E082BF83B7BF
S11305F0846083BF87B7816087BF08956EDDB5DDF2
S1130600F4DF99D2B0D2C1D295D387E891E0909328
S1130610FD048093FC047894089598B3927F98BB6A
S1130620813041F018F0823049F0089588B3816038
S113063088BB089588B3846088BB089588B38860B4
S113064088BB0895E2E6F0E080818F738083809117
S11306509802882321F080919802823049F4E2E6DE
S1130660F0E080818064808381E08093A901089513
S113067080919802813039F4E2E6F0E0808180686C
S113068080831092A9010895B9DF7CD367D3809148
S1130690AE02882309F490C08091A9029091AA0225
S11306A0A091AB02B091AC02883E9340A105B10584
S11306B008F482C01092A9021092AA021092AB020E
S11306C01092AC0280919D0290919E02A0919F0293
S11306D0B091A002892B8A2B8B2BD9F080919D029B
S11306E090919E02A0919F02B091A0020197A1094E
S11306F0B10980939D0290939E02A0939F02B093B0
S1130700A0026091A1017091A2018DE992E039DD0E
S113071053C0809198028F5F8093980280919802D1
S1130720833050F5E0919802F0E0EE0FFF1FEE0FDA
S1130730FF1FEB56FE4F80819181A281B38180938C
S11307409D0290939E02A0939F02B093A00281E029
S11307508093AD028AEF90E09093830080938200AF
S113076071DF6091A1017091A2018DE992E009DD30
S11307708091980252DF20C083E080939802109207
S1130780990210929A0210929B0210929C0210926B
S1130790AE021092AD021092970210928300109252
S11307A08200109294028FEF38DF67ED71E085EFDD
S11307B091E026D21BBA15BA80919802823069F46E
S11307C08091A5029091A602A091A702B091A802DF
S11307D08A3F9105A105B10588F480919802823081
S11307E041F18091A5029091A602A091A702B09137
S11307F0A802843F9140A105B105D8F01092A5024A
S11308001092A6021092A7021092A8028091990257
S113081090919A02A0919B02B0919C020196A11D15
S1130820B11D8093990290939A02A0939B02B09376
S11308309C028091A1029091A202A091A302B09186
S1130840A4020297A105B10588F01092A1021092AA
S1130850A2021092A3021092A4026091A1017091CD
S1130860A2018091A3019091A4018BDC64E070E06B
S113087080E090E036DC892BC1F1809194028130D4
S113088081F018F08230C1F000CF81E080939402AF
S11308901092AE021092AD02109283001092820068
S11308A0F4CE109294021092AE021092AD02109205
S11308B0830010928200E9CE9091AE0281E0911102
S11308C080E08093AE028091AE028093AD0280916D
S11308D0AD02882319F08AEF90E002C080E090E036
S11308E09093830080938200D0CE65E070E081E035
S11308F090E0F7DB892B09F45FC081E090E051D1EF
S113090080919402813029F068F1823009F43FC06B
S1130910BCCE80919D0290919E02A0919F02B091C5
S1130920A00283369105A105B10508F0AECE8091F1
S11309309D0290919E02A0919F02B091A0020A96FE
S1130940A11DB11D80939D0290939E02A0939F02CE
S1130950B093A0026091A1017091A2018DE992E08F
S113096010DC93CE9091AE0281E0911180E08093EF
S1130970AE028091AD02882319F08AEF90E002C0A4
S113098080E090E090938300809382007ECE9091EB
S1130990AD0281E0911180E08093AD028091AD02BF
S11309A0882319F08AEF90E002C080E090E09093F1
S11309B083008093820069CE66E070E082E090E07C
S11309C090DB892B09F45DC081E090E0EAD080914E
S11309D09402813031F580919D0290919E02A09104
S11309E09F02B091A002892B8A2B8B2BD1F080918E
S11309F09D0290919E02A0919F02B091A0020A973D
S1130A00A109B10980939D0290939E02A0939F0235
S1130A10B093A0026091A1017091A2018DE992E0CE
S1130A20B0DB80919402811130CE1092980281E063
S1130A3080939702E0919802F0E0EE0FFF1FEE0F13
S1130A40FF1FEB56FE4F40815181628173814093B9
S1130A509D0250939E0260939F027093A002809324
S1130A60AE028093AD028AEF90E09093830080936E
S1130A7082006091A1017091A2018DE992E081DB75
S1130A8004CE67E070E083E090E02BDB892B09F46F
S1130A90FCCD81E090E085D080919402813051F5C5
S1130AA0E0919502F091960280919D0290919E02B0
S1130AB0A0919F02B091A002EE0FFF1FEE0FFF1F47
S1130AC0EB56FE4F80839183A283B3836091A1018F
S1130AD07091A2018DE992E054DB8091950290918E
S1130AE09602019663E070E017D490939602809387
S1130AF09502CBCD8111C9CD10929D0210929E0218
S1130B0010929F021092A0028CE0E5E9F1E0DF016F
S1130B101D928A95E9F71092AD021092830010920B
S1130B2082001092A9016091A1017091A2018DE946
S1130B3092E027DBAACD82B1886282B9ABE8B0E04B
S1130B408C9181608C93EAE8F0E0808188608083F6
S1130B508C9188608C938081836080831092830061
S1130B60109282000895E1E6F0E08081806C808339
S1130B70E2E6F0E080818F738083808180648083EB
S1130B801092830010928200089587B3806287BB1D
S1130B9080E48FBD8AE08EBD10927A001BBC1ABC23
S1130BA0089520E030E01AC044EF51E05BBD4ABD37
S1130BB04FEF53EF61E0415050406040E1F700C017
S1130BC000001BBC1ABC4FEF53EF61E04150504092
S1130BD06040E1F700C000002F5F3F4F281739073E
S1130BE01CF3089507C08FE99FE00197F1F700C057
S1130BF00000C9019C0121503109892BA1F70895F6
S1130C000F931F93CF93DF93EC018B0110C09BBD17
S1130C108ABDF801819191918F01E4DF22961BBC7A
S1130C201ABC8FE39CE90197F1F700C000008881AA
S1130C3099818033EFE29E0751F7DF91CF911F91A5
S1130C400F9108951F920F920FB60F9211240BB6B5
S1130C500F922F933F934F935F936F937F938F9351
S1130C609F93AF93BF93EF93FF93CF93DF931F9221
S1130C70CDB7DEB78CB1898389818A3049F520915B
S1130C80B4023091B502C90101969093B5028093E4
S1130C90B4028091AF029091B00248E2429FF00109
S1130CA0439FF00D1124E854FD4FE80FF91F108203
S1130CB08091B4029091B5026AE070E02DD39093D4
S1130CC0B5028093B4021092B0021092AF021CC01D
S1130CD06091B4027091B5028091AF029091B0021C
S1130CE09C012F5F3F4F3093B0022093AF024981A4
S1130CF058E2569F9001579F300D112428543D4FC0
S1130D00F901E80FF91F40830F90DF91CF91FF9114
S1130D10EF91BF91AF919F918F917F916F915F916F
S1130D204F913F912F910F900BBE0F900FBE0F90DC
S1130D301F901895109290008FEC89B98BB1826046
S1130D408BB9E5E9F0E08081866080838AB18869A7
S1130D508AB908955D9BFECF8CB908958091B10244
S1130D60882379F088E494E09F938F9385E192E05F
S1130D709F938F9331D31092B1020F900F900F90E5
S1130D800F900895CF932091B2023091B3028091D5
S1130D90B4029091B5022817390709F4D5C02091FF
S1130DA0B2023091B302C8E2C29FC001C39F900D4A
S1130DB0112488549D4F9F938F9388E192E09F93D1
S1130DC08F931F9280E88F9388E494E09F938F938E
S1130DD016D381E08093B1022091B2023091B30224
S1130DE0C29FC001C39F900D112445E050E06EE204
S1130DF072E088549D4FE2D22DB73EB7285F3F4F33
S1130E000FB6F8943EBF0FBE2DBF892B09F04FC01B
S1130E1081E0809397028093AE0280919D0290912D
S1130E209E02A0919F02B091A002892B8A2B8B2B4A
S1130E3081F48091950190919601A0919701B091D0
S1130E40980180939D0290939E02A0939F02B09379
S1130E50A002C1E0C093AD028AEF90E090938300BA
S1130E6080938200EFDB80919D0290919E02A0917D
S1130E709F02B091A002BF93AF939F938F9384E39B
S1130E8092E09F938F931F9280E88F9388E494E07D
S1130E909F938F93B4D2C093B10260DF8DB79EB796
S1130EA00A960FB6F8949EBF0FBE8DBF41C0209125
S1130EB0B2023091B30248E2429FC001439F900DB9
S1130EC0112444E050E065E572E088549D4F76D2E9
S1130ED0892B71F5109297021092AE021092AD0216
S1130EE0109283001092820080919D0290919E0244
S1130EF0A0919F02B091A002BF93AF939F938F9351
S1130F008AE592E09F938F931F9280E88F9388E401
S1130F1094E09F938F9373D281E08093B1022DB7B5
S1130F203EB7265F3F4F0FB6F8943EBF0FBE2DBFAE
S1130F308091B2029091B30201966AE070E0ECD124
S1130F409093B3028093B202CF9108951F920F92AF
S1130F500FB60F9211240BB60F922F933F934F931A
S1130F605F936F937F938F939F93AF93BF93EF930D
S1130F70FF930C9B03C01DBC1CBC31C06CB57DB57C
S1130F8080E090E0D8D020E034E244E759E461D135
S1130F9020E030E040E854E45CD120E034E244E76F
S1130FA05BE430D097D07093B7026093B60280911F
S1130FB0B6029091B7026AE370E0AED17F936F936B
S1130FC083E892E09F938F9388EC94E09F938F93B0
S1130FD052D20F900F900F900F900F900F90FF919F
S1130FE0EF91BF91AF919F918F917F916F915F919D
S1130FF04F913F912F910F900BBE0F900FBE0F900A
S11310001F9018950CD0EBC0E3D040F0DAD030F04C
S113101021F45F3F19F0CCC0511115C1CFC0F0D0FD
S113102098F39923C9F35523B1F3951B550BBB27AB
S1131030AA2762177307840738F09F5F5F4F220F58
S1131040331F441FAA1FA9F333D00E2E3AF0E0E851
S113105030D091505040E695001CCAF729D0FE2F9D
S113106027D0660F771F881FBB1F2617370748072F
S1131070AB07B0E809F0BB0B802DBF01FF279358E5
S11310805F4F2AF09E3F510568F092C0DCC05F3F7D
S1131090ECF3983EDCF3869577956795B795F795CD
S11310A09F5FC9F7880F911D9695879597F90895C5
S11310B0E1E0660F771F881FBB1F62177307840761
S11310C0BA0720F0621B730B840BBA0BEE1F88F770
S11310D0E095089504D06894B111B5C0089598D0EE
S11310E088F09F5790F0B92F9927B751A0F0D1F00D
S11310F0660F771F881F991F1AF0BA95C9F712C097
S1131100B13081F09FD0B1E008959CC0672F782F53
S11311108827B85F39F0B93FCCF386957795679502
S1131120B395D9F73EF490958095709561957F4F6E
S11311308F4F9F4F0895E89409C097FB3EF4909514
S11311408095709561957F4F8F4F9F4F9923A9F09C
S1131150F92F96E9BB279395F6958795779567952B
S1131160B795F111F8CFFAF4BB0F11F460FF1BC06F
S11311706F5F7F4F8F4F9F4F16C0882311F096E902
S113118011C0772321F09EE8872F762F05C06623B0
S113119071F096E8862F70E060E02AF09A95660F69
S11311A0771F881FDAF7880F9695879597F9089522
S11311B097F99F6780E870E060E008959FEF80EC06
S11311C0089500240A9416161706180609060895A9
S11311D000240A9412161306140605060895092E0F
S11311E00394000C11F4882352F0BB0F40F4BF2B7E
S11311F011F460FF04C06F5F7F4F8F4F9F4F0895BE
S113120057FD9058440F551F59F05F3F71F04795B3
S1131210880F97FB991F61F09F3F79F08795089598
S1131220121613061406551FF2CF4695F1DF08C0B7
S1131230161617061806991FF1CF869571056105D4
S113124008940895E894BB2766277727CB0197F97C
S113125008950BD0C4CFB5DF28F0BADF18F095237A
S113126009F0A6CFABCF1124EECFCADFA0F3959F30
S1131270D1F3950F50E0551F629FF001729FBB2779
S1131280F00DB11D639FAA27F00DB11DAA1F649F25
S11312906627B00DA11D661F829F2227B00DA11DD8
S11312A0621F739FB00DA11D621F839FA00D611D5E
S11312B0221F749F3327A00D611D231F849F600D7F
S11312C0211D822F762F6A2F11249F5750408AF0B8
S11312D0E1F088234AF0EE0FFF1FBB1F661F771F44
S11312E0881F91505040A9F79E3F510570F060CF80
S11312F0AACF5F3FECF3983EDCF38695779567952C
S1131300B795F795E7959F5FC1F7FE2B880F911D61
S11313109695879597F9089597FB072E16F40094F0
S113132006D077FD08D036D007FC05D03EF4909562
S113133081959F4F0895709561957F4F0895A1E21F
S11313401A2EAA1BBB1BFD010DC0AA1FBB1FEE1F3B
S1131350FF1FA217B307E407F50720F0A21BB30B86
S1131360E40BF50B661F771F881F991F1A9469F702
S113137060957095809590959B01AC01BD01CF015E
S11313800895EE0FFF1F0024001C0BBE0790F6917A
S1131390E02D0994AA1BBB1B51E107C0AA1FBB1F68
S11313A0A617B70710F0A61BB70B881F991F5A95ED
S11313B0A9F780959095BC01CD010895FB01DC014E
S11313C04150504030F08D910190801919F4002063
S11313D0B9F7881B990B0895CF93DF93CDB7DEB788
S11313E0AE014B5F5F4FFA0161917191AF01809142
S11313F0FC049091FD046DD0DF91CF9108950F937B
S11314001F93CF93DF93CDB7DEB72E970FB6F89423
S1131410DEBF0FBECDBF0D891E898F89988D26E052
S11314202C831A83098397FF02C080E090E8019718
S11314309E838D83AE01455E5F4F698D7A8DCE01AB
S1131440019647D04D815E8157FD0AC02F813885B2
S1131450421753070CF49A01F801E20FF31F1082AC
S11314602E960FB6F894DEBF0FBECDBFDF91CF919D
S11314701F910F9108950F931F93CF93DF93CDB7CF
S1131480DEB72E970FB6F894DEBF0FBECDBF0D8921
S11314901E8986E08C831A8309838FEF9FE79E83DE
S11314A08D83AE01475E5F4F6F89788DCE010196C3
S11314B010D0EF81F885E00FF11F10822E960FB641
S11314C0F894DEBF0FBECDBFDF91CF911F910F9176
S11314D008952F923F924F925F926F927F928F92D4
S11314E09F92AF92BF92CF92DF92EF92FF920F93AF
S11314F01F93CF93DF93CDB7DEB72B970FB6F89436
S1131500DEBF0FBECDBF6C017B018A01FC011782D7
S11315101682838181FFBFC1CE0101963C01F60191
S11315209381F70193FD859193FF81917F01882336
S113153009F4ADC1853239F493FD859193FF81910E
S11315407F01853221F4B60190E0D6D1E8CF912C09
S1131550212C312CFFE1F315D8F08B3279F038F4DB
S1131560803279F08332A1F4232D20611DC08D32A5
S113157061F0803369F4232D216016C0832D8260CD
S1131580382EE32DE4603E2E2AC0F32DF8601DC0F2
S113159037FC2DC020ED280F2A3040F08E32B9F4EC
S11315A036FC75C1232D2064322E19C036FE06C0C8
S11315B08AE0989E200D1124922E11C0EAE02E9EFE
S11315C0200D1124222EF32DF0623F2E08C08C36FC
S11315D021F4832D8068382E02C0883641F4F70147
S11315E093FD859193FF81917F018111B3CF982F52
S11315F09F7D9554933028F40C5F1F4F9FE399838C
S11316000DC0833631F0833771F0833509F055C04E
S113161020C0F801808189830E5F1F4F8824839442
S1131620912C530112C02801F2E04F0E511CF80115
S1131630A080B18036FE03C0692D70E002C06FEF58
S11316407FEFC5014ED14C018201F32DFF773F2E70
S113165015C0280122E0420E511CF801A080B1807F
S113166036FE03C0692D70E002C06FEF7FEFC50145
S11316702DD14C01F32DF0683F2E820133FC19C0AB
S1131680822D90E088169906A0F4B60180E290E0DD
S113169033D12A94F5CFF50137FC859137FE81913A
S11316A05F01B60190E028D121102A9421E0821A2A
S11316B091088114910479F7E1C0843611F08936D8
S11316C039F5F80137FE07C0608171818281938109
S11316D00C5F1F4F08C060817181072E000C880BBE
S11316E0990B0E5F1F4FF32DFF763F2E97FF09C016
S11316F090958095709561957F4F8F4F9F4FF068BF
S11317003F2E2AE030E0A30133D1882E861844C04E
S1131710853731F4232D2F7EB22E2AE030E025C008
S1131720932D997FB92E8F36C1F018F4883579F04E
S1131730AEC0803719F0883721F0A9C0E92FE061E5
S1131740BE2EB4FE0DC0FB2DF460BF2E09C034FEC6
S11317500AC0292F2660B22E06C028E030E005C05A
S113176020E130E002C020E132E0F801B7FE07C01A
S113177060817181828193810C5F1F4F06C06081FB
S1131780718180E090E00E5F1F4FA301F1D0882E9D
S11317908618FB2DFF773F2E36FE0DC0232D2E7F9E
S11317A0A22E891458F434FE0BC032FC09C0832DD8
S11317B08E7EA82E05C0B82CA32C03C0B82C01C063
S11317C0B92CA4FE0FC0FE01E80DF11D8081803309
S11317D021F49A2D997EA92E09C0A2FE06C0B394C5
S11317E0B39404C08A2D867809F0B394A3FC10C086
S11317F0A0FE06C0B21480F4280C922C9B180DC0D5
S1131800B21458F4B60180E290E076D0B394F8CFE5
S1131810B21418F42B1802C0982C212CA4FE0FC06B
S1131820B60180E390E068D0A2FE16C0A1FC03C01C
S113183088E790E002C088E590E0B6010CC08A2DEC
S1131840867851F0A1FE02C08BE201C080E2A7FCC1
S11318508DE2B60190E050D0891430F4B60180E3F3
S113186090E04AD09A94F8CF8A94F301E80DF11DE0
S11318708081B60190E040D08110F6CF222009F497
S11318804ECEB60180E290E037D02A94F7CFF6012D
S11318908681978102C08FEF9FEF2B960FB6F89445
S11318A0DEBF0FBECDBFDF91CF911F910F91FF908F
S11318B0EF90DF90CF90BF90AF909F908F907F90EC
S11318C06F905F904F903F902F900895FC0105908A
S11318D0615070400110D8F7809590958E0F9F1F2E
S11318E00895FC016150704001900110D8F7809573
S11318F090958E0F9F1F08950F931F93CF93DF939F
S1131900FB01238121FD03C08FEF9FEF2CC022FF39
S113191016C046815781248135814217530744F408
S1131920A081B1819D012F5F3F4F318320838C9330
S1131930268137812F5F3F4F3783268314C08B0165
S1131940EC01FB010084F185E02D0995892BE1F67A
S1131950D80116968D919C911797019617969C9392
S11319608E931697CE01DF91CF911F910F91089519
S1131970FA01AA27283051F1203181F1E8946F93BC
S11319806E7F6E5F7F4F8F4F9F4FAF4FB1E03ED062
S1131990B4E03CD0670F781F891F9A1FA11D680F00
S11319A0791F8A1F911DA11D6A0F711D811D911D33
S11319B0A11D20D009F468943F912AE0269F1124A8
S11319C03019305D3193DEF6CF010895462F47700C
S11319D0405D4193B3E00FD0C9F7F6CF462F4F7067
S11319E0405D4A3318F0495D31FD4052419302D0C5
S11319F0A9F7EACFB4E0A69597958795779567956B
S1131A00BA95C9F700976105710508959B01AC016A
S1131A100A2E06945795479537952795BA95C9F791
S1131A20620F731F841F951FA01D0895F894FFCFA4
S1131A300C0104013B012E01210114016F0162011B
S1131A4055014801FFFFFFFFFFFEDECEC6C6C6C636
S1131A5092FFFFFFFFFEFEFEFEFEF6F6F686FFFF98
S1131A60FFFEFEFEFEFEFEFEF6F6C7FBF9F8F8F8F2
S1131A70F8F8F8F8F8F8F0CEFFFFFFF7E7C7C6C6A6
S1131A80C6C6C6C692FFFFF7F7F7F7F7F6F6F6F6FF
S1131A90F686FFF7F7F7F7F7F7F7F6F6F6F6C7F770
S1131AA0F7F7F7F7F7F7F7F7F6F4F0CEC0F9A4B0C5
S1131AB0999282D880987F0000000200000000AA5A
S1131AC006000000000A0000000A0000000A0000EE
S1131AD00099029D0205000000013C57617368698A
S1131AE06E673E2074696D65203D20303A253032A2
S1131AF0640A0057617368696E6720636F6D706C68
S1131B0065746564210A00AA00AA00AA005501AA06
S1131B1000AA00AA00AA00AA00AA00AA005501AAC5
S1131B2000AA00AA02BC03F6027E02DE01BC03384E
S1131B30027E02F60253037E02DE01FA0138027EBF
S1131B4002BC03302F2573005265636569766564B2
S1131B5020636F6D6D616E643A2025730A0073749F
S1131B60617274003C57617368696E6720726573B3
S1131B70756D65643E2074696D65203D2025642083
S1131B807365630A0073746F70003C57617368690E
S1131B906E67207061757365643E2074696D65209D
S1131BA072656D61696E696E673A2025642073659C
S1111BB0630A006469733A202564636D0A00B9
S9030000FC
