:1000000045C0000060C000005EC000005CC0000091
:100010005AC00000D8C2000056C0000054C0000002
:1000200052C0000050C00000B7C200004CC0000029
:100030004AC0000048C0000046C0000044C00000A4
:10004000E0C1000040C0000015C200003CC000003C
:100050003AC0000038C0000036C0000034C00000C4
:1000600032C0000030C000002EC000002CC00000D4
:100070002AC0000028C0000026C0000024C00000E4
:1000800022C0000020C000001EC0000011241FBEBE
:10009000CFEFD0E1DEBFCDBF12E0A0E0B1E0EEEEE9
:1000A000FFE000E00BBF02C007900D92A030B10747
:1000B000D9F723E0A0E0B2E001C01D92A83DB2074D
:1000C000E1F7CAD192C79CCFE4E6F0E0808181607D
:1000D0008083E5E6F0E08081816080830895DC0123
:1000E00010920102E3E6F0E011C08AE08A95F1F790
:1000F00000C0209101022E5F2093010230E0A21780
:10010000B30724F481E08093000208959081492F81
:10011000417050E04617570741F3089510920102CD
:10012000E3E6F0E011C08AE08A95F1F700C0809123
:1001300001028E5F809301028B3530F081E0809365
:1001400000028FEF9FEF0895808180FDECCF81E06A
:1001500090E020910102283208F480E00895CF93C6
:10016000DF93CDB7DEB72D970FB6F894DEBF0FBE85
:10017000CDBFFE01319685E0DF011D928A95E9F73A
:10018000A3DFFE0131963F016E01F6E0CF0ED11CD8
:100190000F2EF6EA4F2EF1E05F2EF02D0F2EF2E932
:1001A000AF2EF1E0BF2EF02D0F2EF5E78F2EF1E0F0
:1001B0009F2EF02D2FEF33ED50E321503040504073
:1001C000E1F700C0000085E0D3011D928A95E9F7B0
:1001D0001092000279DFBFEFE1EEF4E0B150E040B1
:1001E000F040E1F700C00000E5E6F0E080818E7F9E
:1001F00080832FEF39EF50E0215030405040E1F73D
:1002000000C00000808181608083E4E6F0E08081AE
:100210008E7F808385E08A95F1F7000061E070E0D1
:1002200082E390E05CDF80910002882339F080E176
:1002300091E09093010180930001BCCF60E070E0F9
:1002400084E690E04CDF80910002882339F08CE254
:1002500091E09093010180930001ACCF61E070E0E8
:1002600084E690E03CDF80910002882339F084E549
:1002700091E090930101809300019CCFE12CF12C3F
:100280006894332433F8D601E32D1D92EA95E9F7FB
:1002900007E010E060E070E086E490E020DF80910D
:1002A0000002813059F490920101809200010FEF19
:1002B0001FEF0F2EF5E0EF2EF12CF02D2FDF909198
:1002C0000002911105C0F601E00FF11F808304C008
:1002D000B0920101A092000101501109DAF69111CA
:1002E0002DC0F301EE0DFF1D2F81322F330F288516
:1002F000220F220F232B3E81822F832B4985440F0F
:10030000440F440F242F282B8A8530E1839FA001BE
:100310001124422B8B8550E2859F90011124242BC0
:100320008C85A0E48A9FA0011124422B8D85B0E822
:100330008B9F90011124242B208304C05092010133
:1003400040920001EFEFEE1AFE0AF5E0EF16F1041D
:100350000CF499CF911114C02D8130E049818A812C
:1003600090E0840F911D4B81840F911D4C81840F6F
:10037000911D2817390751F082E08093000206C0D2
:1003800083EB91E090930101809300018FEE90E068
:100390000197F1F700C000008091000281111CC09C
:1003A0008C811F928F938B811F928F9383EC91E0AE
:1003B0009F938F932CD38A811F928F9389811F9251
:1003C0008F9381ED91E09F938F9321D30FB6F89493
:1003D000DEBF0FBECDBF0BC01F928F9383EE91E0A7
:1003E0009F938F9314D30F900F900F900F90BFEFA8
:1003F000E3EDF0E3B150E040F040E1F700C0000071
:10040000D9CE1F920F920FB60F9211248F939F9304
:1004100086E082BF8091040290910502019690933C
:1004200005028093040280910202909103020196DA
:1004300090930302809302029F918F910F900FBEC1
:100440000F901F90189586E082BF83B7846083BFAA
:1004500087B7816087BF0895F6DF84D013D182E02B
:1004600091E09093D5038093D403789478DE80E074
:1004700090E008951F920F920FB60F9211240BB6C1
:100480000F922F933F934F935F936F937F938F932D
:100490009F93AF93BF93EF93FF93CF93DF931F92FD
:1004A000CDB7DEB78CB1898389818A3049F5209137
:1004B0000C0230910D02C901019690930D028093B8
:1004C0000C02809106029091070248E2429FF001DF
:1004D000439FF00D1124E25FFD4FE80FF91F1082DA
:1004E00080910C0290910D026AE070E069D29093C5
:1004F0000D0280930C0210920702109206021CC09B
:1005000060910C0270910D02809106029091070299
:100510009C012F5F3F4F30930702209306024981D1
:1005200058E2569F9001579F300D1124225F3D4F96
:10053000F901E80FF91F40830F90DF91CF91FF91F0
:10054000EF91BF91AF919F918F917F916F915F914B
:100550004F913F912F910F900BBE0F900FBE0F90B8
:100560001F901895109290008FEC89B9599AE5E97F
:10057000F0E08081866080838AB188698AB91092B0
:100580009F0310929E0310920D0210920C02089588
:100590005D9BFECF8CB908951F920F920FB60F92FC
:1005A00011248F939F9380910802909109020196E4
:1005B00090930902809308029F918F910F900FBE34
:1005C0000F901F9018951F920F920FB60F92112443
:1005D0000BB60F922F933F934F935F936F937F933D
:1005E0008F939F93AF93BF93EF93FF930C9B06C0A2
:1005F00014BC109209021092080231C064B570E078
:1006000080E090E0EED020E034E244E759E475D198
:1006100020E030E040E852E470D120E034E244E7EA
:100620005BE444D0ABD070930B0260930A028091DC
:100630000A0290910B026AE370E0C2D17F936F933C
:1006400081EF91E09F938F9380EA93E09F938F9344
:10065000F1D10F900F900F900F900F900F90FF918E
:10066000EF91BF91AF919F918F917F916F915F912A
:100670004F913F912F910F900BBE0F900FBE0F9097
:100680001F901895E4E6F0E08081816080831498E3
:100690008AB781608ABF85B5846085BD89B780616E
:1006A00089BF14BC87B7806487BF08950CD0EBC0A6
:1006B000E3D040F0DAD030F021F45F3F19F0CCC045
:1006C000511115C1CFC0F0D098F39923C9F3552328
:1006D000B1F3951B550BBB27AA2762177307840735
:1006E00038F09F5F5F4F220F331F441FAA1FA9F3EB
:1006F00033D00E2E3AF0E0E830D091505040E695DD
:10070000001CCAF729D0FE2F27D0660F771F881F3D
:10071000BB1F261737074807AB07B0E809F0BB0B2C
:10072000802DBF01FF2793585F4F2AF09E3F510550
:1007300068F092C0DCC05F3FECF3983EDCF3869536
:1007400077956795B795F7959F5FC9F7880F911DC6
:100750009695879597F90895E1E0660F771F881FB2
:10076000BB1F621773078407BA0720F0621B730B65
:10077000840BBA0BEE1F88F7E095089504D06894B7
:10078000B111B5C0089598D088F09F5790F0B92F57
:100790009927B751A0F0D1F0660F771F881F991FD6
:1007A0001AF0BA95C9F712C0B13081F09FD0B1E00C
:1007B00008959CC0672F782F8827B85F39F0B93F1C
:1007C000CCF3869577956795B395D9F73EF49095D8
:1007D0008095709561957F4F8F4F9F4F0895E89456
:1007E00009C097FB3EF490958095709561957F4F79
:1007F0008F4F9F4F9923A9F0F92F96E9BB27939527
:10080000F695879577956795B795F111F8CFFAF436
:10081000BB0F11F460FF1BC06F5F7F4F8F4F9F4F67
:1008200016C0882311F096E911C0772321F09EE8C5
:10083000872F762F05C0662371F096E8862F70E02B
:1008400060E02AF09A95660F771F881FDAF7880F05
:100850009695879597F9089597F99F6780E870E0D6
:1008600060E008959FEF80EC089500240A94161626
:10087000170618060906089500240A94121613068E
:10088000140605060895092E0394000C11F488231C
:1008900052F0BB0F40F4BF2B11F460FF04C06F5F38
:1008A0007F4F8F4F9F4F089557FD9058440F551F0E
:1008B00059F05F3F71F04795880F97FB991F61F0E2
:1008C0009F3F79F087950895121613061406551F59
:1008D000F2CF4695F1DF08C0161617061806991FC5
:1008E000F1CF86957105610508940895E894BB27BA
:1008F00066277727CB0197F908950BD0C4CFB5DFD2
:1009000028F0BADF18F0952309F0A6CFABCF112459
:10091000EECFCADFA0F3959FD1F3950F50E0551F9E
:10092000629FF001729FBB27F00DB11D639FAA2744
:10093000F00DB11DAA1F649F6627B00DA11D661F93
:10094000829F2227B00DA11D621F739FB00DA11DB4
:10095000621F839FA00D611D221F749F3327A00D6E
:10096000611D231F849F600D211D822F762F6A2F0A
:1009700011249F5750408AF0E1F088234AF0EE0F8F
:10098000FF1FBB1F661F771F881F91505040A9F79C
:100990009E3F510570F060CFAACF5F3FECF3983EC9
:1009A000DCF3869577956795B795F795E7959F5F03
:1009B000C1F7FE2B880F911D9695879597F908959D
:1009C00097FB072E16F4009406D077FD08D00BD0C5
:1009D00007FC05D03EF4909581959F4F0895709542
:1009E00061957F4F0895AA1BBB1B51E107C0AA1F49
:1009F000BB1FA617B70710F0A61BB70B881F991FC0
:100A00005A95A9F780959095BC01CD010895CF9393
:100A1000DF93CDB7DEB7AE014B5F5F4FFA01619157
:100A20007191AF018091D4039091D50331D0DF91C2
:100A3000CF9108950F931F93CF93DF93CDB7DEB778
:100A40002E970FB6F894DEBF0FBECDBF0D891E895D
:100A500086E08C831A8309838FEF9FE79E838D83C3
:100A6000AE01475E5F4F6F89788DCE01019610D041
:100A7000EF81F885E00FF11F10822E960FB6F894E3
:100A8000DEBF0FBECDBFDF91CF911F910F910895B3
:100A90002F923F924F925F926F927F928F929F928E
:100AA000AF92BF92CF92DF92EF92FF920F931F937C
:100AB000CF93DF93CDB7DEB72B970FB6F894DEBF99
:100AC0000FBECDBF6C017B018A01FC01178216822B
:100AD000838181FFBFC1CE0101963C01F601938164
:100AE000F70193FD859193FF81917F01882309F49C
:100AF000ADC1853239F493FD859193FF81917F01DA
:100B0000853221F4B60190E0D6D1E8CF912C212C8A
:100B1000312CFFE1F315D8F08B3279F038F48032C4
:100B200079F08332A1F4232D20611DC08D3261F054
:100B3000803369F4232D216016C0832D8260382E06
:100B4000E32DE4603E2E2AC0F32DF8601DC037FC73
:100B50002DC020ED280F2A3040F08E32B9F436FC3B
:100B600075C1232D2064322E19C036FE06C08AE0DE
:100B7000989E200D1124922E11C0EAE02E9E200D89
:100B80001124222EF32DF0623F2E08C08C3621F462
:100B9000832D8068382E02C0883641F4F70193FD1A
:100BA000859193FF81917F018111B3CF982F9F7D14
:100BB0009554933028F40C5F1F4F9FE399830DC029
:100BC000833631F0833771F0833509F055C020C08A
:100BD000F801808189830E5F1F4F88248394912CB4
:100BE000530112C02801F2E04F0E511CF801A08001
:100BF000B18036FE03C0692D70E002C06FEF7FEF59
:100C0000C5014ED14C018201F32DFF773F2E15C057
:100C1000280122E0420E511CF801A080B18036FE6E
:100C200003C0692D70E002C06FEF7FEFC5012DD1C9
:100C30004C01F32DF0683F2E820133FC19C0822D48
:100C400090E088169906A0F4B60180E290E033D1D6
:100C50002A94F5CFF50137FC859137FE81915F012C
:100C6000B60190E028D121102A9421E0821A91083F
:100C70008114910479F7E1C0843611F0893639F591
:100C8000F80137FE07C060817181828193810C5F1A
:100C90001F4F08C060817181072E000C880B990BD3
:100CA0000E5F1F4FF32DFF763F2E97FF09C09095E3
:100CB0008095709561957F4F8F4F9F4FF0683F2EC5
:100CC0002AE030E0A30133D1882E861844C085374E
:100CD00031F4232D2F7EB22E2AE030E025C0932D53
:100CE000997FB92E8F36C1F018F4883579F0AEC0EF
:100CF000803719F0883721F0A9C0E92FE061BE2EB6
:100D0000B4FE0DC0FB2DF460BF2E09C034FE0AC036
:100D1000292F2660B22E06C028E030E005C020E171
:100D200030E002C020E132E0F801B7FE07C0608188
:100D30007181828193810C5F1F4F06C06081718138
:100D400080E090E00E5F1F4FA301F1D0882E86183F
:100D5000FB2DFF773F2E36FE0DC0232D2E7FA22EBA
:100D6000891458F434FE0BC032FC09C0832D8E7EEA
:100D7000A82E05C0B82CA32C03C0B82C01C0B92CD8
:100D8000A4FE0FC0FE01E80DF11D8081803321F427
:100D90009A2D997EA92E09C0A2FE06C0B394B394E1
:100DA00004C08A2D867809F0B394A3FC10C0A0FE7D
:100DB00006C0B21480F4280C922C9B180DC0B214FB
:100DC00058F4B60180E290E076D0B394F8CFB21434
:100DD00018F42B1802C0982C212CA4FE0FC0B601C9
:100DE00080E390E068D0A2FE16C0A1FC03C088E7B3
:100DF00090E002C088E590E0B6010CC08A2D8678AC
:100E000051F0A1FE02C08BE201C080E2A7FC8DE29E
:100E1000B60190E050D0891430F4B60180E390E040
:100E20004AD09A94F8CF8A94F301E80DF11D80819D
:100E3000B60190E040D08110F6CF222009F44ECECA
:100E4000B60180E290E037D02A94F7CFF601868190
:100E5000978102C08FEF9FEF2B960FB6F894DEBFFD
:100E60000FBECDBFDF91CF911F910F91FF90EF90FB
:100E7000DF90CF90BF90AF909F908F907F906F90BA
:100E80005F904F903F902F900895FC010590615026
:100E900070400110D8F7809590958E0F9F1F089590
:100EA000FC016150704001900110D8F78095909539
:100EB0008E0F9F1F08950F931F93CF93DF93FB0116
:100EC000238121FD03C08FEF9FEF2CC022FF16C0AE
:100ED00046815781248135814217530744F4A0810C
:100EE000B1819D012F5F3F4F318320838C932681F9
:100EF00037812F5F3F4F3783268314C08B01EC016E
:100F0000FB010084F185E02D0995892BE1F6D801DC
:100F100016968D919C911797019617969C938E9398
:100F20001697CE01DF91CF911F910F910895FA018D
:100F3000AA27283051F1203181F1E8946F936E7F18
:100F40006E5F7F4F8F4F9F4FAF4FB1E03ED0B4E009
:100F50003CD0670F781F891F9A1FA11D680F791F4A
:100F60008A1F911DA11D6A0F711D811D911DA11D5B
:100F700020D009F468943F912AE0269F112430196B
:100F8000305D3193DEF6CF010895462F4770405D06
:100F90004193B3E00FD0C9F7F6CF462F4F70405DB5
:100FA0004A3318F0495D31FD4052419302D0A9F710
:100FB000EACFB4E0A6959795879577956795BA950A
:100FC000C9F700976105710508959B01AC010A2ED0
:100FD00006945795479537952795BA95C9F7620FA7
:0E0FE000731F841F951FA01D0895F894FFCF66
:100FEE00EF010000000200000000C8020000000037
:100FFE00726573706F6E7365207369676E616C20B6
:10100E00636865636B206661696C650073746570F7
:10101E0020322C20726573706F6E73652073696752
:10102E006E616C206C6F7720636865636B20666100
:10103E00696C650073746570322C20726573706F05
:10104E006E7365207369676E616C206869676820CE
:10105E006661696C00676574206269742C20353096
:10106E007573206C6F7720636865636B20666169AA
:10107E006C00676574206269742C2068696768204B
:10108E006661696C650067657420626974206661CB
:10109E00696C0067657420626974206661696C65AD
:1010AE0020320074656D70203A2025642E25640A66
:1010BE000068756D6964697479203A2025642E255F
:1010CE00640A004552524F52203A2025640A0020ED
:1010DE0000646973203A202564636D0A002573004D
:00000001FF
