:1000000045C0000060C000005EC000005CC0000091
:100010005AC0000058C0000056C0000054C0000084
:1000200052C0000050C000004EC000004CC0000094
:100030004AC0000048C0000046C0000044C00000A4
:10004000E4C2000040C000003EC000003CC0000010
:100050003AC0000038C0000036C0000034C00000C4
:1000600032C0000030C000002EC000002CC00000D4
:100070002AC0000028C0000026C0000024C00000E4
:1000800022C0000020C000001EC0000011241FBEBE
:10009000CFEFD0E1DEBFCDBF11E0A0E0B1E0E6E9F7
:1000A000F6E000E00BBF02C007900D92A831B10747
:1000B000D9F721E0A8E1B1E001C01D92A033B20759
:1000C000E1F7BCD2E6C29CCF40B321E030E002C0F1
:1000D000220F331F6A95E2F750E024233523232BA8
:1000E000B9F0FC01E85EFE4F2081211127C02FEFFF
:1000F0003DEE42E0215030404040E1F700C00000BA
:10010000FC01E85EFE4F21E0208380E090E008954E
:10011000FC01E85EFE4F2081213099F42FEF3DEE87
:1001200042E0215030404040E1F700C00000FC01B7
:10013000E85EFE4F108281E090E0089580E090E05C
:10014000089580E090E008951BBA80E090E0A0E17F
:10015000B0E0E8E0F0E03BB3BD01082E02C0660F5E
:10016000771F0A94E2F7AF01082E02C05595479514
:100170000A94E2F7262F242B232B2BBB2FEF36E7F5
:1001800041E0215030404040E1F700C000000196BE
:100190008430910501F708951BBA20E030E0E0EFCC
:1001A000F0E06FE070E0CF01022E02C095958795D8
:1001B0000A94E2F7482F407FCB01022E02C0880F3D
:1001C000991F0A94E2F78F70842B8BBB4FEF86E761
:1001D00091E0415080409040E1F700C000002F5F67
:1001E0003F4F24303105F9F61BBA2FEF46E781E087
:1001F000215040408040E1F700C00000089580E0B9
:1002000090E061E070E04BB39B01082E02C0220F2A
:10021000331F0A94E2F7242B2BBB2FEF36E741E084
:10022000215030404040E1F700C000000196883086
:10023000910549F708951BBA80E090E060E870E00E
:100240004BB39B01082E02C0359527950A94E2F71F
:10025000242B2BBB2FEF36E741E0215030404040AC
:10026000E1F700C0000001968830910549F7089534
:1002700080E090E041E050E09A01082E02C0220F99
:10028000331F0A94E2F72BBB2FEF36E761E02150D2
:1002900030406040E1F700C00000019688309105D1
:1002A00059F708951BBA80E090E040E850E09A01C9
:1002B000082E02C0359527950A94E2F72BBB2FEF45
:1002C00036E761E0215030406040E1F700C00000B7
:1002D00001968830910559F7089580912C019091ED
:1002E0002D01019666E070E0ADD190932D018093D1
:1002F0002C0108958FEF8ABB01E010E0C6E0D0E04A
:1003000064E070E080E090E0DFDE892B71F0902FF8
:10031000812F20912A0130912B01232B11F090E0A5
:1003200080E090932A0180932B0180912A01909183
:100330002B01892BC1F480912E0190912F014E97B2
:100340002CF010922F0110922E01C7DFE0912C01AA
:10035000F0912D01EE0FFF1FE45FFE4F0190F08141
:10036000E02D0995CDCF65E070E0802F912FACDEB8
:10037000892B59F080912801909129010196BE01A5
:1003800061D19093290180932801E0912801F09197
:100390002901EE0FFF1FE050FF4F0190F081E02D8B
:1003A0000995AECF80912E0190912F018436910551
:1003B0009CF110922F0110922E0140912601509134
:1003C0002701443051056CF01BBA1092270110929E
:1003D000260180912A0190912B01892BE9F47DCF90
:1003E0000895CA01019690932701809326015BB37B
:1003F00060E170E0042E02C0660F771F0A94E2F7F6
:1004000028E030E002C0359527954A95E2F7CB0108
:10041000822B932B852B8BBB089580912E0190917D
:100420002F014E97ACF110922F0110922E014091A6
:10043000240150912501443051056CF01BBA1092F3
:1004400025011092240180912A0190912B01892B82
:10045000F9F443CF089580EF90E0042E02C0959503
:1004600087950A94E2F7282F207F8FE090E002C062
:10047000880F991F4A95E2F78F70822B8BBB809172
:1004800024019091250101969093250180932401E8
:10049000089580912E0190912F014E9744F1109272
:1004A0002F0110922E01209122013091230128303A
:1004B00031056CF01BBA1092230110922201809139
:1004C0002A0190912B01892B91F407CF0895C9013E
:1004D000019690932301809322013BB381E090E049
:1004E00002C0880F991F2A95E2F7832B8BBB0895D2
:1004F00080912E0190912F014E9744F110922F017F
:1005000010922E01209120013091210128303105D7
:100510006CF01BBA109221011092200180912A01E7
:1005200090912B01892B91F4D8CE0895C9010196A1
:1005300090932101809320013BB380E890E002C0BA
:10054000959587952A95E2F7832B8BBB089580912B
:100550002E0190912F014E9744F110922F0110928D
:100560002E0180911E0190911F01883091056CF041
:100570001BBA10921F0110921E0180912A019091C6
:100580002B01892B91F4A9CE08959C012F5F3F4F39
:1005900030931F0120931E0121E030E0A90102C029
:1005A000440F551F8A95E2F74BBB089580912E01A9
:1005B00090912F014E9744F110922F0110922E012D
:1005C00080911C0190911D01883091056CF01BBA3F
:1005D00010921D0110921C0180912A0190912B0113
:1005E000892B91F47ACE08959C012F5F3F4F309371
:1005F0001D0120931C0120E830E0A90102C055959F
:1006000047958A95E2F74BBB08951F920F920FB65C
:100610000F9211248F939F9386E082BF80912E01C9
:1006200090912F01019690932F0180932E019F911D
:100630008F910F900FBE0F901F9018955BDE80E09A
:1006400090E0089597FB072E16F4009406D077FDEE
:1006500008D00BD007FC05D03EF4909581959F4FB4
:100660000895709561957F4F0895AA1BBB1B51E1BA
:1006700007C0AA1FBB1FA617B70710F0A61BB70B12
:10068000881F991F5A95A9F780959095BC01CD01B7
:060690000895F894FFCF6D
:1006960038015201FF001B01A400CC00A702D602BC
:0806A60049027802D2010D02A5
:00000001FF
