:1000000045C0000060C000005EC000005CC0000091
:100010005AC0000058C0000056C0000054C0000084
:1000200052C0000050C000004EC000004CC0000094
:100030004AC0000048C0000046C0000044C00000A4
:10004000F2C2000040C000003EC000003CC0000002
:100050003AC0000038C0000036C0000034C00000C4
:1000600032C0000030C000002EC000002CC00000D4
:100070002AC0000028C0000026C0000024C00000E4
:1000800022C0000020C000001EC0000011241FBEBE
:10009000CFEFD0E1DEBFCDBF11E0A0E0B1E0E0E303
:1000A000F8E000E00BBF02C007900D92AA35B1073F
:1000B000D9F721E0AAE5B1E001C01D92A038B2074E
:1000C000E1F783D3B3C39CCF81B38F7081BB089515
:1000D00040B321E030E002C0220F331F6A95E2F7FF
:1000E00050E024233523232BB9F0FC01E65AFE4FC0
:1000F0002081211127C02FEF3DEE42E021503040FA
:100100004040E1F700C00000FC01E65AFE4F21E04C
:10011000208380E090E00895FC01E65AFE4F2081A4
:10012000213099F42FEF3DEE42E021503040404025
:10013000E1F700C00000FC01E65AFE4F108281E0AA
:1001400090E0089580E090E0089580E090E00895C8
:100150001092790110927801089580917801909120
:1001600079010196909379018093780108958091A7
:1001700076019091770101969093770180937601B3
:100180000895CF93DF93CDB7DEB7C355D1090FB62E
:10019000F894DEBF0FBECDBF84E2E6E0F1E0DE0101
:1001A000119601900D928A95E1F784E2EAE2F1E07E
:1001B000DE01959601900D928A95E1F78BE0EEE4D1
:1001C000F1E0DE01A75BBF4F01900D928A95E1F748
:1001D0008FEF85BB8091640190916501813091051D
:1001E00009F447C01CF4892B49F023C182309105E2
:1001F00009F486C0039709F4DBC01BC180E888BB03
:1002000080916801909169018130910581F480911C
:100210007801909179016AE070E0E1D2E9E4F0E0E0
:10022000EC0FFD1FE80FF91F808185BB02C102970B
:1002300081F480917601909177016AE070E0CFD2ED
:10024000E9E4F0E0EC0FFD1FE80FF91F808185BBAA
:10025000F0C080917A0190917B016AE070E0BFD29A
:10026000E9E4F0E0EC0FFD1FE80FF91F808185BB8A
:10027000E0C080E488BB8091680190916901813081
:100280009105A1F480917801909179016AE070E084
:10029000A6D2CB0166E070E0A2D2E9E4F0E0EC0F78
:1002A000FD1FE80FF91F808185BBC3C00297A1F431
:1002B00080917601909177016AE070E090D2CB0155
:1002C00066E070E08CD2E9E4F0E0EC0FFD1FE80F8F
:1002D000F91F808185BBADC080917A0190917B012F
:1002E0006AE070E07CD2CB0166E070E078D2E9E4AD
:1002F000F0E0EC0FFD1FE80FF91F808185BB99C06E
:1003000080E288BB809168019091690181309105FC
:1003100079F4809178019091790162E170E05FD287
:10032000FC01EE0FFF1FEC0FFD1F818185BB81C01B
:100330000297A1F480917601909177016CE370E0CF
:100340004ED2CB016AE070E04AD2E9E4F0E0EC0F73
:10035000FD1FE80FF91F808185BB6BC080917A017A
:1003600090917B0180FD10C06CE370E038D2CB012E
:100370006AE070E034D2E9E4F0E0EC0FFD1FE80F32
:10038000F91F80818F7785BB80917A0190917B01E5
:100390006CE370E024D2CB016AE070E020D2E9E4A3
:1003A000F0E0EC0FFD1FE80FF91F808185BB41C015
:1003B00080E188BB8091680190916901813091054D
:1003C00079F4809178019091790162E170E007D22F
:1003D000FC01EE0FFF1FEC0FFD1F85A185BB29C09F
:1003E0000297A1F4809176019091770168E572E01F
:1003F000F6D1CB0166E070E0F2D1E9E4F0E0EC0F79
:10040000FD1FE80FF91F808185BB13C080917A0121
:1004100090917B0168E572E0E2D1CB0166E070E08B
:10042000DED1E9E4F0E0EC0FFD1FE80FF91F808159
:1004300085BB8091640190916501019683709078ED
:10044000992324F401978C6F9F6F01969093650117
:1004500080936401CD5ADF4F0FB6F894DEBF0FBE14
:10046000CDBFDF91CF9108959FEF94BB87B3806F8D
:1004700087BB95BB089580916801909169010196B1
:1004800063E070E0ACD190936901809368010895B6
:1004900065E070E081E090E01BDE892B11F1809136
:1004A000680190916901009749F410927F011092C0
:1004B0007E0110927B0110927A010895813091059E
:1004C00029F410927901109278010895029721F58C
:1004D00010927F0110927E011092770110927601A6
:1004E000089566E070E082E090E0F2DD892BA1F0F3
:1004F0008091680190916901029771F481E090E028
:100500002091660130916701232B11F080E090E08B
:1005100090936701809366010895CF93DF93EC0178
:10052000FC01EE0FFF1FE25AFE4F80819181892B63
:10053000B1F4209711F440D109C0C130D10511F4B4
:100540003ED104C0C230D10509F43CD1CC0FDD1F2F
:10055000C25ADE4F81E090E09983888307C02AD198
:10056000CC0FDD1FC25ADE4F19821882DF91CF9166
:100570000895809168019091690182309105D1F4CC
:1005800080916A0190916B01A0916C01B0916D0115
:1005900084369105A105B10508F443C010926A01A3
:1005A00010926B0110926C0110926D0182E090E04C
:1005B000B4CF089581309105C9F480916E01909176
:1005C0006F01A0917001B0917101883E9340A10527
:1005D000B10538F110926E0110926F011092700106
:1005E0001092710181E090E098CF0895892BC9F4B1
:1005F0008091720190917301A0917401B091750185
:10060000843F9140A105B10560F0109272011092F3
:100610007301109274011092750180E090E07DCF1B
:100620000895C8C008951F920F920FB60F9211241B
:100630002F938F939F9380917E0190917F010196DC
:1006400090937F0180937E0180917C0190917D0148
:10065000019690937D0180937C0180917E01909121
:100660007F01883E9340E4F010927F0110927E015A
:1006700080917A0190917B01019690937B01809308
:100680007A018091680190916901019749F4809104
:100690007801909179010196909379018093780186
:1006A00080917C0190917D010A97CCF010927D01A0
:1006B00010927C018091680190916901029779F410
:1006C0008091660190916701892B49F080917601B4
:1006D00090917701019690937701809376019F9195
:1006E0008F912F910F900FBE0F901F90189586E05D
:1006F00082BF83B7846083BF87B7816087BF7894E8
:100700000895B2DEF4DF64E070E080E090E0E0DCC9
:10071000892B69F0B0DEE0916801F0916901EE0F7C
:10072000FF1FE050FF4F0190F081E02D099580916F
:10073000720190917301A0917401B09175010196BD
:10074000A11DB11D8093720190937301A093740158
:10075000B093750180916E0190916F01A09170012D
:10076000B09171010196A11DB11D80936E0190930E
:100770006F01A0937001B093710180916A01909113
:100780006B01A0916C01B0916D010196A11DB11D8D
:1007900080936A0190936B01A0936C01B0936D01FB
:1007A00077DEE7DEEEDC8FE99FE00197F1F700C02E
:1007B0000000A9CF1BBA089581E08BBB089582E0A9
:1007C0008BBB089584E08BBB0895CF93CFEFCABB5A
:1007D0007BDC97DFCABB80E090E0CF91089597FB68
:1007E000072E16F4009406D077FD08D00BD007FC36
:1007F00005D03EF4909581959F4F08957095619531
:100800007F4F0895AA1BBB1B51E107C0AA1FBB1F46
:10081000A617B70710F0A61BB70B881F991F5A958C
:10082000A9F780959095BC01CD010895F894FFCF6C
:10083000A800AD00B700FFFFFEFFFEFFFEFFFEFFBA
:10084000FEFFF6FFF2FFF0FFFFFFFDFFF9FFF1FFF4
:10085000F1FFF1FFF1FFF1FFF0FFFFFFFFFFFEFFF0
:10086000DEFFCEFFC6FFC6FFC6FFC6FFFFFFFFFFCE
:10087000FFFFFFFFF7FFE7FFC7FFC6FFC6FFC0F997
:0A088000A4B0999282D880907F0006
:00000001FF
