S018000030332E54494D45525F434F4E54524F4C2E737265637A
S113000045C0000060C000005EC000005CC000008D
S11300105AC0000058C0000056C0000054C0000080
S113002052C0000050C000004EC000004CC0000090
S11300304AC0000048C0000046C0000044C00000A0
S1130040FFC2000040C000003EC000003CC00000F1
S11300503AC0000038C0000036C0000034C00000C0
S113006032C0000030C000002EC000002CC00000D0
S11300702AC0000028C0000026C0000024C00000E0
S113008022C0000020C000001EC0000011241FBEBA
S1130090CFEFD0E1DEBFCDBF11E0A0E0B1E0EEE6EE
S11300A0F7E000E00BBF02C007900D92A831B10742
S11300B0D9F721E0A8E1B1E001C01D92AC33B20749
S11300C0E1F7E1D252C39CCF40B321E030E002C05B
S11300D0220F331F6A95E2F750E024233523232BA4
S11300E0B9F0FC01E85EFE4F2081211127C02FEFFB
S11300F03DEE42E0215030404040E1F700C00000B6
S1130100FC01E85EFE4F21E0208380E090E008954A
S1130110FC01E85EFE4F2081213099F42FEF3DEE83
S113012042E0215030404040E1F700C00000FC01B3
S1130130E85EFE4F108281E090E0089580E090E058
S1130140089580E090E00895CF93DF93CDB7DEB7B4
S11301502B970FB6F894DEBF0FBECDBF8BE0ECE05B
S1130160F1E0DE01119601900D928A95E1F78091FC
S11301701C0190911D018130910501F11CF4892B22
S113018041F06FC082309105A9F1039709F44EC084
S113019068C080E888BB60911E0170911F01809146
S11301A02001909121012AE030E040E050E0A7D204
S11301B0FE01E60FF71F818185BB53C080E488BB35
S11301C060911E0170911F01809120019091210185
S11301D02AE030E040E050E092D2CA01B90126E0C2
S11301E030E040E050E08BD2FE01E60FF71F818142
S11301F085BB37C080E288BB60911E0170911F01EE
S113020080912001909121012CE330E040E050E006
S113021076D2CA01B9012AE030E040E050E06FD262
S1130220FE01E60FF71F818185BB1BC080E188BBFF
S113023060911E0170911F01809120019091210114
S113024028E532E040E050E05AD2CA01B90126E084
S113025030E040E050E053D2FE01E60FF71F818109
S113026085BB80911C0190911D010196837090784B
S1130270992324F401978C6F9F6F019690931D012D
S113028080931C012B960FB6F894DEBF0FBECDBF32
S1130290DF91CF9108959FEF94BB87B3806F87BBA5
S11302A095BB0895F8DF50DF8FE99FE00197F1F7E0
S11302B000C000008091220190912301A0912401AB
S11302C0B09125010196A11DB11D80932201909347
S11302D02301A0932401B0932501883E9340A105F6
S11302E0B10508F310922201109223011092240107
S11302F01092250180911E0190911F01A09120016F
S1130300B09121010196A11DB11D80931E0190930E
S11303101F01A0932001B0932101C5CF8FEF8ABBA9
S113032001E010E0C6E0D0E064E070E080E090E03E
S1130330CBDE892B71F0902F812F209132013091E7
S11303403301232B11F090E080E0909332018093ED
S113035033018091320190913301892B69F4E0914A
S11303603601F0913701EE0FFF1FE050FF4F01906F
S1130370F081E02D0995D8CF65E070E0802F912FB2
S1130380A3DE892B59F080913401909135010196B7
S1130390BE01A2D19093350180933401E0913401E0
S11303A0F0913501EE0FFF1FE050FF4F0190F081F7
S11303B0E02D0995B9CF80913601909137010196CE
S11303C066E070E089D190933701809336010895F7
S11303D080913A0190913B0184369105ACF11092E1
S11303E03B0110923A0120913001309131012430C7
S11303F031056CF010923101109230011BBA8091DA
S1130400320190913301892BF9F4D5CF08953BB390
S113041080E190E0AC01022E02C0440F551F0A9403
S1130420E2F788E090E002C0959587952A95E2F777
S1130430842B832B8BBB80913001909131010196E9
S11304409093310180933001089580913A01909105
S11304503B014E97ACF110923B0110923A0140914E
S11304602E0150912F01443051056CF010922F0150
S113047010922E011BBA8091320190913301892B85
S1130480F9F499CF089580EF90E0042E02C0959579
S113049087950A94E2F7282F207F8FE090E002C02E
S11304A0880F991F4A95E2F78F70822B8BBB80913E
S11304B02E0190912F01019690932F0180932E018C
S11304C0089580913A0190913B014E975CF110920E
S11304D03B0110923A0120912C0130912D012830DA
S11304E031056CF010922D0110922C011BBA8091F1
S11304F0320190913301892BA9F45DCF08953BB368
S113050081E090E002C0880F991F2A95E2F7832BBF
S11305108BBB80912C0190912D01019690932D011C
S113052080932C01089580913A0190913B014E975C
S113053044F110923B0110923A0120912A0130912A
S11305402B01283031056CF010922B0110922A01F6
S11305501BBA8091320190913301892B91F42BCFF6
S11305600895C901019690932B0180932A013BB30E
S113057080E890E002C0959587952A95E2F7832B51
S11305808BBB089580913A0190913B014E9744F1C1
S113059010923B0110923A01809128019091290117
S11305A0883091056CF010922901109228011BBA31
S11305B08091320190913301892B91F4FCCE0895FE
S11305C09C012F5F3F4F309329012093280121E0A4
S11305D030E0A90102C0440F551F8A95E2F74BBBD6
S11305E0089580913A0190913B014E9744F1109205
S11305F03B0110923A0180912601909127018830A5
S113060091056CF010922701109226011BBA80917B
S1130610320190913301892B91F4CDCE08959C0140
S11306202F5F3F4F309327012093260120E830E0CD
S1130630A90102C0559547958A95E2F74BBB0895E9
S11306401F920F920FB60F9211248F939F9386E0FF
S113065082BF80913A0190913B01019690933B01B6
S113066080933A019F918F910F900FBE0F901F902E
S1130670189586E082BF83B7846083BF87B78160A3
S113068087BF78940895F5DF49DE0CDE61E050E021
S11306904FEF80913A0190913B01883E934094F052
S11306A010923B0110923A01962F852F2091380128
S11306B030913901232B11F090E080E090933801C0
S11306C0809339018091380190913901892B11F07F
S11306D04BBBDFCF1BBADDCF97FB072E16F400947C
S11306E006D077FD08D02DD007FC05D03EF49095B8
S11306F081959F4F0895709561957F4F0895A1E26C
S11307001A2EAA1BBB1BFD010DC0AA1FBB1FEE1F87
S1130710FF1FA217B307E407F50720F0A21BB30BD2
S1130720E40BF50B661F771F881F991F1A9469F74E
S113073060957095809590959B01AC01BD01CF01AA
S11307400895AA1BBB1B51E107C0AA1FBB1FA61714
S1130750B70710F0A61BB70B881F991F5A95A9F766
S111076080959095BC01CD010895F894FFCFCB
S113076EC202F10261029302E8012502C0F9A4B0AB
S10B077E999282D880907F005B
S9030000FC
