:1000000045C0000060C000005EC000005CC0000091
:100010005AC0000058C0000056C0000054C0000084
:1000200052C0000050C000004EC000004CC0000094
:100030004AC0000048C0000046C0000044C00000A4
:100040002DC1000040C000003EC000003CC00000C8
:100050003AC0000038C0000036C0000034C00000C4
:1000600032C0000030C000002EC000002CC00000D4
:100070002AC0000028C0000026C0000024C00000E4
:1000800022C0000020C000001EC0000011241FBEBE
:10009000CFEFD0E1DEBFCDBF11E0A0E0B1E0EAE7F5
:1000A000F3E000E00BBF02C007900D92AC30B10747
:1000B000D9F721E0ACE0B1E001C01D92AA31B2074E
:1000C000E1F70FD158C19CCFCF93DF93CDB7DEB707
:1000D0002B970FB6F894DEBF0FBECDBF8BE0E0E0EC
:1000E000F1E0DE01119601900D928A95E1F7809181
:1000F0000C0190910D018130910501F11CF4892BC7
:1001000041F06FC082309105A9F1039709F44EC008
:1001100068C08FE788BB60910E0170910F018091DC
:100120001001909111012AE030E040E050E001D14F
:10013000FE01E60FF71F818185BB53C08FEB88BBA3
:1001400060910E0170910F01809110019091110149
:100150002AE030E040E050E0ECD0CA01B90126E0EE
:1001600030E040E050E0E5D0FE01E60FF71F81816E
:1001700085BB37C08FED88BB60910E0170910F0178
:1001800080911001909111012CE330E040E050E0AB
:10019000D0D0CA01B9012AE030E040E050E0C9D037
:1001A000FE01E60FF71F818185BB1BC08FEE88BB68
:1001B00060910E0170910F018091100190911101D9
:1001C00028E532E040E050E0B4D0CA01B90126E0B1
:1001D00030E040E050E0ADD0FE01E60FF71F818136
:1001E00085BB80910C0190910D01019683709078F0
:1001F000992324F401978C6F9F6F019690930D01C2
:1002000080930C012B960FB6F894DEBF0FBECDBFC6
:10021000DF91CF9108958FEF84BB87B3806F87BB49
:1002200015BA0895F8DF50DF8FE99FE00197F1F7E5
:1002300000C000008091120190911301A09114015F
:10024000B09115010196A11DB11D809312019093EB
:100250001301A0931401B0931501883E9340A105AA
:10026000B10508F3109212011092130110921401BB
:100270001092150180910E0190910F01A091100133
:10028000B09111010196A11DB11D80930E019093B3
:100290000F01A0931001B0931101C5CF1F920F92CF
:1002A0000FB60F9211248F939F9386E082BF8091A7
:1002B00018019091190101969093190180931801EA
:1002C0009F918F910F900FBE0F901F90189586E011
:1002D00082BF83B7846083BF87B7816087BF78940C
:1002E0000895F5DF9FDF61E050E04FEF8091180146
:1002F00090911901883E934094F010921901109248
:100300001801962F852F2091160130911701232B6C
:1003100011F090E080E09093160180931701809196
:10032000160190911701892B11F04BBBDFCF1BBA3F
:10033000DDCFA1E21A2EAA1BBB1BFD010DC0AA1F17
:10034000BB1FEE1FFF1FA217B307E407F50720F03E
:10035000A21BB30BE40BF50B661F771F881F991FB9
:100360001A9469F760957095809590959B01AC0102
:0A037000BD01CF010895F894FFCFFE
:0C037A003F065B4F666D7D277F6F8000A3
:00000001FF
